{
  "_format": "hh-sol-artifact-1",
  "contractName": "MyToken",
  "sourceName": "contracts/MyERC20Vote.sol",
  "abi": [
    {
      "inputs": [],
      "stateMutability": "nonpayable",
      "type": "constructor"
    },
    {
      "inputs": [],
      "name": "AccessControlBadConfirmation",
      "type": "error"
    },
    {
      "inputs": [
        {
          "internalType": "address",
          "name": "account",
          "type": "address"
        },
        {
          "internalType": "bytes32",
          "name": "neededRole",
          "type": "bytes32"
        }
      ],
      "name": "AccessControlUnauthorizedAccount",
      "type": "error"
    },
    {
      "inputs": [],
      "name": "CheckpointUnorderedInsertion",
      "type": "error"
    },
    {
      "inputs": [],
      "name": "ECDSAInvalidSignature",
      "type": "error"
    },
    {
      "inputs": [
        {
          "internalType": "uint256",
          "name": "length",
          "type": "uint256"
        }
      ],
      "name": "ECDSAInvalidSignatureLength",
      "type": "error"
    },
    {
      "inputs": [
        {
          "internalType": "bytes32",
          "name": "s",
          "type": "bytes32"
        }
      ],
      "name": "ECDSAInvalidSignatureS",
      "type": "error"
    },
    {
      "inputs": [
        {
          "internalType": "uint256",
          "name": "increasedSupply",
          "type": "uint256"
        },
        {
          "internalType": "uint256",
          "name": "cap",
          "type": "uint256"
        }
      ],
      "name": "ERC20ExceededSafeSupply",
      "type": "error"
    },
    {
      "inputs": [
        {
          "internalType": "address",
          "name": "spender",
          "type": "address"
        },
        {
          "internalType": "uint256",
          "name": "allowance",
          "type": "uint256"
        },
        {
          "internalType": "uint256",
          "name": "needed",
          "type": "uint256"
        }
      ],
      "name": "ERC20InsufficientAllowance",
      "type": "error"
    },
    {
      "inputs": [
        {
          "internalType": "address",
          "name": "sender",
          "type": "address"
        },
        {
          "internalType": "uint256",
          "name": "balance",
          "type": "uint256"
        },
        {
          "internalType": "uint256",
          "name": "needed",
          "type": "uint256"
        }
      ],
      "name": "ERC20InsufficientBalance",
      "type": "error"
    },
    {
      "inputs": [
        {
          "internalType": "address",
          "name": "approver",
          "type": "address"
        }
      ],
      "name": "ERC20InvalidApprover",
      "type": "error"
    },
    {
      "inputs": [
        {
          "internalType": "address",
          "name": "receiver",
          "type": "address"
        }
      ],
      "name": "ERC20InvalidReceiver",
      "type": "error"
    },
    {
      "inputs": [
        {
          "internalType": "address",
          "name": "sender",
          "type": "address"
        }
      ],
      "name": "ERC20InvalidSender",
      "type": "error"
    },
    {
      "inputs": [
        {
          "internalType": "address",
          "name": "spender",
          "type": "address"
        }
      ],
      "name": "ERC20InvalidSpender",
      "type": "error"
    },
    {
      "inputs": [
        {
          "internalType": "uint256",
          "name": "deadline",
          "type": "uint256"
        }
      ],
      "name": "ERC2612ExpiredSignature",
      "type": "error"
    },
    {
      "inputs": [
        {
          "internalType": "address",
          "name": "signer",
          "type": "address"
        },
        {
          "internalType": "address",
          "name": "owner",
          "type": "address"
        }
      ],
      "name": "ERC2612InvalidSigner",
      "type": "error"
    },
    {
      "inputs": [
        {
          "internalType": "uint256",
          "name": "timepoint",
          "type": "uint256"
        },
        {
          "internalType": "uint48",
          "name": "clock",
          "type": "uint48"
        }
      ],
      "name": "ERC5805FutureLookup",
      "type": "error"
    },
    {
      "inputs": [],
      "name": "ERC6372InconsistentClock",
      "type": "error"
    },
    {
      "inputs": [
        {
          "internalType": "address",
          "name": "account",
          "type": "address"
        },
        {
          "internalType": "uint256",
          "name": "currentNonce",
          "type": "uint256"
        }
      ],
      "name": "InvalidAccountNonce",
      "type": "error"
    },
    {
      "inputs": [],
      "name": "InvalidShortString",
      "type": "error"
    },
    {
      "inputs": [
        {
          "internalType": "uint8",
          "name": "bits",
          "type": "uint8"
        },
        {
          "internalType": "uint256",
          "name": "value",
          "type": "uint256"
        }
      ],
      "name": "SafeCastOverflowedUintDowncast",
      "type": "error"
    },
    {
      "inputs": [
        {
          "internalType": "string",
          "name": "str",
          "type": "string"
        }
      ],
      "name": "StringTooLong",
      "type": "error"
    },
    {
      "inputs": [
        {
          "internalType": "uint256",
          "name": "expiry",
          "type": "uint256"
        }
      ],
      "name": "VotesExpiredSignature",
      "type": "error"
    },
    {
      "anonymous": false,
      "inputs": [
        {
          "indexed": true,
          "internalType": "address",
          "name": "owner",
          "type": "address"
        },
        {
          "indexed": true,
          "internalType": "address",
          "name": "spender",
          "type": "address"
        },
        {
          "indexed": false,
          "internalType": "uint256",
          "name": "value",
          "type": "uint256"
        }
      ],
      "name": "Approval",
      "type": "event"
    },
    {
      "anonymous": false,
      "inputs": [
        {
          "indexed": true,
          "internalType": "address",
          "name": "delegator",
          "type": "address"
        },
        {
          "indexed": true,
          "internalType": "address",
          "name": "fromDelegate",
          "type": "address"
        },
        {
          "indexed": true,
          "internalType": "address",
          "name": "toDelegate",
          "type": "address"
        }
      ],
      "name": "DelegateChanged",
      "type": "event"
    },
    {
      "anonymous": false,
      "inputs": [
        {
          "indexed": true,
          "internalType": "address",
          "name": "delegate",
          "type": "address"
        },
        {
          "indexed": false,
          "internalType": "uint256",
          "name": "previousVotes",
          "type": "uint256"
        },
        {
          "indexed": false,
          "internalType": "uint256",
          "name": "newVotes",
          "type": "uint256"
        }
      ],
      "name": "DelegateVotesChanged",
      "type": "event"
    },
    {
      "anonymous": false,
      "inputs": [],
      "name": "EIP712DomainChanged",
      "type": "event"
    },
    {
      "anonymous": false,
      "inputs": [
        {
          "indexed": true,
          "internalType": "bytes32",
          "name": "role",
          "type": "bytes32"
        },
        {
          "indexed": true,
          "internalType": "bytes32",
          "name": "previousAdminRole",
          "type": "bytes32"
        },
        {
          "indexed": true,
          "internalType": "bytes32",
          "name": "newAdminRole",
          "type": "bytes32"
        }
      ],
      "name": "RoleAdminChanged",
      "type": "event"
    },
    {
      "anonymous": false,
      "inputs": [
        {
          "indexed": true,
          "internalType": "bytes32",
          "name": "role",
          "type": "bytes32"
        },
        {
          "indexed": true,
          "internalType": "address",
          "name": "account",
          "type": "address"
        },
        {
          "indexed": true,
          "internalType": "address",
          "name": "sender",
          "type": "address"
        }
      ],
      "name": "RoleGranted",
      "type": "event"
    },
    {
      "anonymous": false,
      "inputs": [
        {
          "indexed": true,
          "internalType": "bytes32",
          "name": "role",
          "type": "bytes32"
        },
        {
          "indexed": true,
          "internalType": "address",
          "name": "account",
          "type": "address"
        },
        {
          "indexed": true,
          "internalType": "address",
          "name": "sender",
          "type": "address"
        }
      ],
      "name": "RoleRevoked",
      "type": "event"
    },
    {
      "anonymous": false,
      "inputs": [
        {
          "indexed": true,
          "internalType": "address",
          "name": "from",
          "type": "address"
        },
        {
          "indexed": true,
          "internalType": "address",
          "name": "to",
          "type": "address"
        },
        {
          "indexed": false,
          "internalType": "uint256",
          "name": "value",
          "type": "uint256"
        }
      ],
      "name": "Transfer",
      "type": "event"
    },
    {
      "inputs": [],
      "name": "CLOCK_MODE",
      "outputs": [
        {
          "internalType": "string",
          "name": "",
          "type": "string"
        }
      ],
      "stateMutability": "view",
      "type": "function"
    },
    {
      "inputs": [],
      "name": "DEFAULT_ADMIN_ROLE",
      "outputs": [
        {
          "internalType": "bytes32",
          "name": "",
          "type": "bytes32"
        }
      ],
      "stateMutability": "view",
      "type": "function"
    },
    {
      "inputs": [],
      "name": "DOMAIN_SEPARATOR",
      "outputs": [
        {
          "internalType": "bytes32",
          "name": "",
          "type": "bytes32"
        }
      ],
      "stateMutability": "view",
      "type": "function"
    },
    {
      "inputs": [],
      "name": "MINTER_ROLE",
      "outputs": [
        {
          "internalType": "bytes32",
          "name": "",
          "type": "bytes32"
        }
      ],
      "stateMutability": "view",
      "type": "function"
    },
    {
      "inputs": [
        {
          "internalType": "address",
          "name": "owner",
          "type": "address"
        },
        {
          "internalType": "address",
          "name": "spender",
          "type": "address"
        }
      ],
      "name": "allowance",
      "outputs": [
        {
          "internalType": "uint256",
          "name": "",
          "type": "uint256"
        }
      ],
      "stateMutability": "view",
      "type": "function"
    },
    {
      "inputs": [
        {
          "internalType": "address",
          "name": "spender",
          "type": "address"
        },
        {
          "internalType": "uint256",
          "name": "value",
          "type": "uint256"
        }
      ],
      "name": "approve",
      "outputs": [
        {
          "internalType": "bool",
          "name": "",
          "type": "bool"
        }
      ],
      "stateMutability": "nonpayable",
      "type": "function"
    },
    {
      "inputs": [
        {
          "internalType": "address",
          "name": "account",
          "type": "address"
        }
      ],
      "name": "balanceOf",
      "outputs": [
        {
          "internalType": "uint256",
          "name": "",
          "type": "uint256"
        }
      ],
      "stateMutability": "view",
      "type": "function"
    },
    {
      "inputs": [
        {
          "internalType": "address",
          "name": "account",
          "type": "address"
        },
        {
          "internalType": "uint32",
          "name": "pos",
          "type": "uint32"
        }
      ],
      "name": "checkpoints",
      "outputs": [
        {
          "components": [
            {
              "internalType": "uint48",
              "name": "_key",
              "type": "uint48"
            },
            {
              "internalType": "uint208",
              "name": "_value",
              "type": "uint208"
            }
          ],
          "internalType": "struct Checkpoints.Checkpoint208",
          "name": "",
          "type": "tuple"
        }
      ],
      "stateMutability": "view",
      "type": "function"
    },
    {
      "inputs": [],
      "name": "clock",
      "outputs": [
        {
          "internalType": "uint48",
          "name": "",
          "type": "uint48"
        }
      ],
      "stateMutability": "view",
      "type": "function"
    },
    {
      "inputs": [],
      "name": "decimals",
      "outputs": [
        {
          "internalType": "uint8",
          "name": "",
          "type": "uint8"
        }
      ],
      "stateMutability": "view",
      "type": "function"
    },
    {
      "inputs": [
        {
          "internalType": "address",
          "name": "delegatee",
          "type": "address"
        }
      ],
      "name": "delegate",
      "outputs": [],
      "stateMutability": "nonpayable",
      "type": "function"
    },
    {
      "inputs": [
        {
          "internalType": "address",
          "name": "delegatee",
          "type": "address"
        },
        {
          "internalType": "uint256",
          "name": "nonce",
          "type": "uint256"
        },
        {
          "internalType": "uint256",
          "name": "expiry",
          "type": "uint256"
        },
        {
          "internalType": "uint8",
          "name": "v",
          "type": "uint8"
        },
        {
          "internalType": "bytes32",
          "name": "r",
          "type": "bytes32"
        },
        {
          "internalType": "bytes32",
          "name": "s",
          "type": "bytes32"
        }
      ],
      "name": "delegateBySig",
      "outputs": [],
      "stateMutability": "nonpayable",
      "type": "function"
    },
    {
      "inputs": [
        {
          "internalType": "address",
          "name": "account",
          "type": "address"
        }
      ],
      "name": "delegates",
      "outputs": [
        {
          "internalType": "address",
          "name": "",
          "type": "address"
        }
      ],
      "stateMutability": "view",
      "type": "function"
    },
    {
      "inputs": [],
      "name": "eip712Domain",
      "outputs": [
        {
          "internalType": "bytes1",
          "name": "fields",
          "type": "bytes1"
        },
        {
          "internalType": "string",
          "name": "name",
          "type": "string"
        },
        {
          "internalType": "string",
          "name": "version",
          "type": "string"
        },
        {
          "internalType": "uint256",
          "name": "chainId",
          "type": "uint256"
        },
        {
          "internalType": "address",
          "name": "verifyingContract",
          "type": "address"
        },
        {
          "internalType": "bytes32",
          "name": "salt",
          "type": "bytes32"
        },
        {
          "internalType": "uint256[]",
          "name": "extensions",
          "type": "uint256[]"
        }
      ],
      "stateMutability": "view",
      "type": "function"
    },
    {
      "inputs": [
        {
          "internalType": "uint256",
          "name": "timepoint",
          "type": "uint256"
        }
      ],
      "name": "getPastTotalSupply",
      "outputs": [
        {
          "internalType": "uint256",
          "name": "",
          "type": "uint256"
        }
      ],
      "stateMutability": "view",
      "type": "function"
    },
    {
      "inputs": [
        {
          "internalType": "address",
          "name": "account",
          "type": "address"
        },
        {
          "internalType": "uint256",
          "name": "timepoint",
          "type": "uint256"
        }
      ],
      "name": "getPastVotes",
      "outputs": [
        {
          "internalType": "uint256",
          "name": "",
          "type": "uint256"
        }
      ],
      "stateMutability": "view",
      "type": "function"
    },
    {
      "inputs": [
        {
          "internalType": "bytes32",
          "name": "role",
          "type": "bytes32"
        }
      ],
      "name": "getRoleAdmin",
      "outputs": [
        {
          "internalType": "bytes32",
          "name": "",
          "type": "bytes32"
        }
      ],
      "stateMutability": "view",
      "type": "function"
    },
    {
      "inputs": [
        {
          "internalType": "address",
          "name": "account",
          "type": "address"
        }
      ],
      "name": "getVotes",
      "outputs": [
        {
          "internalType": "uint256",
          "name": "",
          "type": "uint256"
        }
      ],
      "stateMutability": "view",
      "type": "function"
    },
    {
      "inputs": [
        {
          "internalType": "bytes32",
          "name": "role",
          "type": "bytes32"
        },
        {
          "internalType": "address",
          "name": "account",
          "type": "address"
        }
      ],
      "name": "grantRole",
      "outputs": [],
      "stateMutability": "nonpayable",
      "type": "function"
    },
    {
      "inputs": [
        {
          "internalType": "bytes32",
          "name": "role",
          "type": "bytes32"
        },
        {
          "internalType": "address",
          "name": "account",
          "type": "address"
        }
      ],
      "name": "hasRole",
      "outputs": [
        {
          "internalType": "bool",
          "name": "",
          "type": "bool"
        }
      ],
      "stateMutability": "view",
      "type": "function"
    },
    {
      "inputs": [
        {
          "internalType": "address",
          "name": "to",
          "type": "address"
        },
        {
          "internalType": "uint256",
          "name": "amount",
          "type": "uint256"
        }
      ],
      "name": "mint",
      "outputs": [],
      "stateMutability": "nonpayable",
      "type": "function"
    },
    {
      "inputs": [],
      "name": "name",
      "outputs": [
        {
          "internalType": "string",
          "name": "",
          "type": "string"
        }
      ],
      "stateMutability": "view",
      "type": "function"
    },
    {
      "inputs": [
        {
          "internalType": "address",
          "name": "owner",
          "type": "address"
        }
      ],
      "name": "nonces",
      "outputs": [
        {
          "internalType": "uint256",
          "name": "",
          "type": "uint256"
        }
      ],
      "stateMutability": "view",
      "type": "function"
    },
    {
      "inputs": [
        {
          "internalType": "address",
          "name": "account",
          "type": "address"
        }
      ],
      "name": "numCheckpoints",
      "outputs": [
        {
          "internalType": "uint32",
          "name": "",
          "type": "uint32"
        }
      ],
      "stateMutability": "view",
      "type": "function"
    },
    {
      "inputs": [
        {
          "internalType": "address",
          "name": "owner",
          "type": "address"
        },
        {
          "internalType": "address",
          "name": "spender",
          "type": "address"
        },
        {
          "internalType": "uint256",
          "name": "value",
          "type": "uint256"
        },
        {
          "internalType": "uint256",
          "name": "deadline",
          "type": "uint256"
        },
        {
          "internalType": "uint8",
          "name": "v",
          "type": "uint8"
        },
        {
          "internalType": "bytes32",
          "name": "r",
          "type": "bytes32"
        },
        {
          "internalType": "bytes32",
          "name": "s",
          "type": "bytes32"
        }
      ],
      "name": "permit",
      "outputs": [],
      "stateMutability": "nonpayable",
      "type": "function"
    },
    {
      "inputs": [
        {
          "internalType": "bytes32",
          "name": "role",
          "type": "bytes32"
        },
        {
          "internalType": "address",
          "name": "callerConfirmation",
          "type": "address"
        }
      ],
      "name": "renounceRole",
      "outputs": [],
      "stateMutability": "nonpayable",
      "type": "function"
    },
    {
      "inputs": [
        {
          "internalType": "bytes32",
          "name": "role",
          "type": "bytes32"
        },
        {
          "internalType": "address",
          "name": "account",
          "type": "address"
        }
      ],
      "name": "revokeRole",
      "outputs": [],
      "stateMutability": "nonpayable",
      "type": "function"
    },
    {
      "inputs": [
        {
          "internalType": "bytes4",
          "name": "interfaceId",
          "type": "bytes4"
        }
      ],
      "name": "supportsInterface",
      "outputs": [
        {
          "internalType": "bool",
          "name": "",
          "type": "bool"
        }
      ],
      "stateMutability": "view",
      "type": "function"
    },
    {
      "inputs": [],
      "name": "symbol",
      "outputs": [
        {
          "internalType": "string",
          "name": "",
          "type": "string"
        }
      ],
      "stateMutability": "view",
      "type": "function"
    },
    {
      "inputs": [],
      "name": "totalSupply",
      "outputs": [
        {
          "internalType": "uint256",
          "name": "",
          "type": "uint256"
        }
      ],
      "stateMutability": "view",
      "type": "function"
    },
    {
      "inputs": [
        {
          "internalType": "address",
          "name": "to",
          "type": "address"
        },
        {
          "internalType": "uint256",
          "name": "value",
          "type": "uint256"
        }
      ],
      "name": "transfer",
      "outputs": [
        {
          "internalType": "bool",
          "name": "",
          "type": "bool"
        }
      ],
      "stateMutability": "nonpayable",
      "type": "function"
    },
    {
      "inputs": [
        {
          "internalType": "address",
          "name": "from",
          "type": "address"
        },
        {
          "internalType": "address",
          "name": "to",
          "type": "address"
        },
        {
          "internalType": "uint256",
          "name": "value",
          "type": "uint256"
        }
      ],
      "name": "transferFrom",
      "outputs": [
        {
          "internalType": "bool",
          "name": "",
          "type": "bool"
        }
      ],
      "stateMutability": "nonpayable",
      "type": "function"
    }
  ],
  "bytecode": "0x6101606040523480156200001257600080fd5b506040518060400160405280600781526020017f4d79546f6b656e00000000000000000000000000000000000000000000000000815250806040518060400160405280600181526020017f31000000000000000000000000000000000000000000000000000000000000008152506040518060400160405280600781526020017f4d79546f6b656e000000000000000000000000000000000000000000000000008152506040518060400160405280600381526020017f4d544b00000000000000000000000000000000000000000000000000000000008152508160039081620000fd91906200072f565b5080600490816200010f91906200072f565b505050620001286005836200021260201b90919060201c565b6101208181525050620001466006826200021260201b90919060201c565b6101408181525050818051906020012060e08181525050808051906020012061010081815250504660a08181525050620001856200026a60201b60201c565b608081815250503073ffffffffffffffffffffffffffffffffffffffff1660c08173ffffffffffffffffffffffffffffffffffffffff1681525050505050620001d86000801b33620002c760201b60201c565b506200020b7f9f2df0fed2c77648de5860a4cc508cd0818c85b8b8a1ab4ceeef8d981c8956a633620002c760201b60201c565b5062000a39565b600060208351101562000238576200023083620003cb60201b60201c565b905062000264565b826200024a836200043860201b60201c565b60000190816200025b91906200072f565b5060ff60001b90505b92915050565b60007f8b73c3c69bb8fe3d512ecc4cf759cc79239f7b179b0ffacaa9a75d522b39400f60e051610100514630604051602001620002ac95949392919062000887565b60405160208183030381529060405280519060200120905090565b6000620002db83836200044260201b60201c565b620003c0576001600b600085815260200190815260200160002060000160008473ffffffffffffffffffffffffffffffffffffffff1673ffffffffffffffffffffffffffffffffffffffff16815260200190815260200160002060006101000a81548160ff0219169083151502179055506200035c620004ad60201b60201c565b73ffffffffffffffffffffffffffffffffffffffff168273ffffffffffffffffffffffffffffffffffffffff16847f2f8788117e7eff1d82e926ec794901d17c78024a50270940304540a733656f0d60405160405180910390a460019050620003c5565b600090505b92915050565b600080829050601f815111156200041b57826040517f305a27a900000000000000000000000000000000000000000000000000000000815260040162000412919062000973565b60405180910390fd5b8051816200042990620009c9565b60001c1760001b915050919050565b6000819050919050565b6000600b600084815260200190815260200160002060000160008373ffffffffffffffffffffffffffffffffffffffff1673ffffffffffffffffffffffffffffffffffffffff16815260200190815260200160002060009054906101000a900460ff16905092915050565b600033905090565b600081519050919050565b7f4e487b7100000000000000000000000000000000000000000000000000000000600052604160045260246000fd5b7f4e487b7100000000000000000000000000000000000000000000000000000000600052602260045260246000fd5b600060028204905060018216806200053757607f821691505b6020821081036200054d576200054c620004ef565b5b50919050565b60008190508160005260206000209050919050565b60006020601f8301049050919050565b600082821b905092915050565b600060088302620005b77fffffffffffffffffffffffffffffffffffffffffffffffffffffffffffffffff8262000578565b620005c3868362000578565b95508019841693508086168417925050509392505050565b6000819050919050565b6000819050919050565b6000620006106200060a6200060484620005db565b620005e5565b620005db565b9050919050565b6000819050919050565b6200062c83620005ef565b620006446200063b8262000617565b84845462000585565b825550505050565b600090565b6200065b6200064c565b6200066881848462000621565b505050565b5b8181101562000690576200068460008262000651565b6001810190506200066e565b5050565b601f821115620006df57620006a98162000553565b620006b48462000568565b81016020851015620006c4578190505b620006dc620006d38562000568565b8301826200066d565b50505b505050565b600082821c905092915050565b60006200070460001984600802620006e4565b1980831691505092915050565b60006200071f8383620006f1565b9150826002028217905092915050565b6200073a82620004b5565b67ffffffffffffffff811115620007565762000755620004c0565b5b6200076282546200051e565b6200076f82828562000694565b600060209050601f831160018114620007a7576000841562000792578287015190505b6200079e858262000711565b8655506200080e565b601f198416620007b78662000553565b60005b82811015620007e157848901518255600182019150602085019450602081019050620007ba565b86831015620008015784890151620007fd601f891682620006f1565b8355505b6001600288020188555050505b505050505050565b6000819050919050565b6200082b8162000816565b82525050565b6200083c81620005db565b82525050565b600073ffffffffffffffffffffffffffffffffffffffff82169050919050565b60006200086f8262000842565b9050919050565b620008818162000862565b82525050565b600060a0820190506200089e600083018862000820565b620008ad602083018762000820565b620008bc604083018662000820565b620008cb606083018562000831565b620008da608083018462000876565b9695505050505050565b600082825260208201905092915050565b60005b8381101562000915578082015181840152602081019050620008f8565b60008484015250505050565b6000601f19601f8301169050919050565b60006200093f82620004b5565b6200094b8185620008e4565b93506200095d818560208601620008f5565b620009688162000921565b840191505092915050565b600060208201905081810360008301526200098f818462000932565b905092915050565b600081519050919050565b6000819050602082019050919050565b6000620009c0825162000816565b80915050919050565b6000620009d68262000997565b82620009e284620009a2565b9050620009ef81620009b2565b9250602082101562000a325762000a2d7fffffffffffffffffffffffffffffffffffffffffffffffffffffffffffffffff8360200360080262000578565b831692505b5050919050565b60805160a05160c05160e05161010051610120516101405161400262000a9460003960006119cd0152600061199201526000611e3f01526000611e1e0152600061147f015260006114d5015260006114fe01526140026000f3fe608060405234801561001057600080fd5b50600436106101f05760003560e01c806370a082311161010f578063a217fddf116100a2578063d539139311610071578063d539139314610621578063d547741f1461063f578063dd62ed3e1461065b578063f1127ed81461068b576101f0565b8063a217fddf1461059b578063a9059cbb146105b9578063c3cda520146105e9578063d505accf14610605576101f0565b806391d14854116100de57806391d14854146104ff57806391ddadf41461052f57806395d89b411461054d5780639ab24eb01461056b576101f0565b806370a082311461044b5780637ecebe001461047b57806384b0196e146104ab5780638e539e8c146104cf576101f0565b80633644e515116101875780634bf5d7e9116101565780634bf5d7e9146103b1578063587cde1e146103cf5780635c19a95c146103ff5780636fcfff451461041b576101f0565b80633644e5151461032b57806336568abe146103495780633a46b1a81461036557806340c10f1914610395576101f0565b806323b872dd116101c357806323b872dd14610291578063248a9ca3146102c15780632f2ff15d146102f1578063313ce5671461030d576101f0565b806301ffc9a7146101f557806306fdde0314610225578063095ea7b31461024357806318160ddd14610273575b600080fd5b61020f600480360381019061020a919061315e565b6106bb565b60405161021c91906131a6565b60405180910390f35b61022d610735565b60405161023a9190613251565b60405180910390f35b61025d60048036038101906102589190613307565b6107c7565b60405161026a91906131a6565b60405180910390f35b61027b6107ea565b6040516102889190613356565b60405180910390f35b6102ab60048036038101906102a69190613371565b6107f4565b6040516102b891906131a6565b60405180910390f35b6102db60048036038101906102d691906133fa565b610823565b6040516102e89190613436565b60405180910390f35b61030b60048036038101906103069190613451565b610843565b005b610315610865565b60405161032291906134ad565b60405180910390f35b61033361086e565b6040516103409190613436565b60405180910390f35b610363600480360381019061035e9190613451565b61087d565b005b61037f600480360381019061037a9190613307565b6108f8565b60405161038c9190613356565b60405180910390f35b6103af60048036038101906103aa9190613307565b6109d1565b005b6103b9610a0a565b6040516103c69190613251565b60405180910390f35b6103e960048036038101906103e491906134c8565b610a9e565b6040516103f69190613504565b60405180910390f35b610419600480360381019061041491906134c8565b610b07565b005b610435600480360381019061043091906134c8565b610b21565b604051610442919061353e565b60405180910390f35b610465600480360381019061046091906134c8565b610b33565b6040516104729190613356565b60405180910390f35b610495600480360381019061049091906134c8565b610b7b565b6040516104a29190613356565b60405180910390f35b6104b3610b8d565b6040516104c69796959493929190613652565b60405180910390f35b6104e960048036038101906104e491906136d6565b610c37565b6040516104f69190613356565b60405180910390f35b61051960048036038101906105149190613451565b610cd2565b60405161052691906131a6565b60405180910390f35b610537610d3d565b6040516105449190613724565b60405180910390f35b610555610d4c565b6040516105629190613251565b60405180910390f35b610585600480360381019061058091906134c8565b610dde565b6040516105929190613356565b60405180910390f35b6105a3610e4a565b6040516105b09190613436565b60405180910390f35b6105d360048036038101906105ce9190613307565b610e51565b6040516105e091906131a6565b60405180910390f35b61060360048036038101906105fe919061376b565b610e74565b005b61061f600480360381019061061a91906137f8565b610f3a565b005b610629611082565b6040516106369190613436565b60405180910390f35b61065960048036038101906106549190613451565b6110a6565b005b6106756004803603810190610670919061389a565b6110c8565b6040516106829190613356565b60405180910390f35b6106a560048036038101906106a09190613906565b61114f565b6040516106b291906139b9565b60405180910390f35b60007f7965db0b000000000000000000000000000000000000000000000000000000007bffffffffffffffffffffffffffffffffffffffffffffffffffffffff1916827bffffffffffffffffffffffffffffffffffffffffffffffffffffffff1916148061072e575061072d82611169565b5b9050919050565b60606003805461074490613a03565b80601f016020809104026020016040519081016040528092919081815260200182805461077090613a03565b80156107bd5780601f10610792576101008083540402835291602001916107bd565b820191906000526020600020905b8154815290600101906020018083116107a057829003601f168201915b5050505050905090565b6000806107d26111d3565b90506107df8185856111db565b600191505092915050565b6000600254905090565b6000806107ff6111d3565b905061080c8582856111ed565b610817858585611281565b60019150509392505050565b6000600b6000838152602001908152602001600020600101549050919050565b61084c82610823565b61085581611375565b61085f8383611389565b50505050565b60006012905090565b600061087861147b565b905090565b6108856111d3565b73ffffffffffffffffffffffffffffffffffffffff168173ffffffffffffffffffffffffffffffffffffffff16146108e9576040517f6697b23200000000000000000000000000000000000000000000000000000000815260040160405180910390fd5b6108f38282611532565b505050565b600080610903610d3d565b90508065ffffffffffff1683106109535782816040517fecd3f81e00000000000000000000000000000000000000000000000000000000815260040161094a929190613a34565b60405180910390fd5b6109ac61095f84611625565b600960008773ffffffffffffffffffffffffffffffffffffffff1673ffffffffffffffffffffffffffffffffffffffff16815260200190815260200160002061167f90919063ffffffff16565b79ffffffffffffffffffffffffffffffffffffffffffffffffffff1691505092915050565b7f9f2df0fed2c77648de5860a4cc508cd0818c85b8b8a1ab4ceeef8d981c8956a66109fb81611375565b610a058383611779565b505050565b6060610a146117fb565b65ffffffffffff16610a24610d3d565b65ffffffffffff1614610a63576040517f6ff0714000000000000000000000000000000000000000000000000000000000815260040160405180910390fd5b6040518060400160405280601d81526020017f6d6f64653d626c6f636b6e756d6265722666726f6d3d64656661756c74000000815250905090565b6000600860008373ffffffffffffffffffffffffffffffffffffffff1673ffffffffffffffffffffffffffffffffffffffff16815260200190815260200160002060009054906101000a900473ffffffffffffffffffffffffffffffffffffffff169050919050565b6000610b116111d3565b9050610b1d818361180b565b5050565b6000610b2c8261191f565b9050919050565b60008060008373ffffffffffffffffffffffffffffffffffffffff1673ffffffffffffffffffffffffffffffffffffffff168152602001908152602001600020549050919050565b6000610b8682611977565b9050919050565b600060608060008060006060610ba1611989565b610ba96119c4565b46306000801b600067ffffffffffffffff811115610bca57610bc9613a5d565b5b604051908082528060200260200182016040528015610bf85781602001602082028036833780820191505090505b507f0f00000000000000000000000000000000000000000000000000000000000000959493929190965096509650965096509650965090919293949596565b600080610c42610d3d565b90508065ffffffffffff168310610c925782816040517fecd3f81e000000000000000000000000000000000000000000000000000000008152600401610c89929190613a34565b60405180910390fd5b610cae610c9e84611625565b600a61167f90919063ffffffff16565b79ffffffffffffffffffffffffffffffffffffffffffffffffffff16915050919050565b6000600b600084815260200190815260200160002060000160008373ffffffffffffffffffffffffffffffffffffffff1673ffffffffffffffffffffffffffffffffffffffff16815260200190815260200160002060009054906101000a900460ff16905092915050565b6000610d476117fb565b905090565b606060048054610d5b90613a03565b80601f0160208091040260200160405190810160405280929190818152602001828054610d8790613a03565b8015610dd45780601f10610da957610100808354040283529160200191610dd4565b820191906000526020600020905b815481529060010190602001808311610db757829003601f168201915b5050505050905090565b6000610e27600960008473ffffffffffffffffffffffffffffffffffffffff1673ffffffffffffffffffffffffffffffffffffffff1681526020019081526020016000206119ff565b79ffffffffffffffffffffffffffffffffffffffffffffffffffff169050919050565b6000801b81565b600080610e5c6111d3565b9050610e69818585611281565b600191505092915050565b83421115610eb957836040517f4683af0e000000000000000000000000000000000000000000000000000000008152600401610eb09190613356565b60405180910390fd5b6000610f1b610f137fe48329057bfd03d55e49b547132e39cffd9c1820ad7b9d4c5307691425d15adf898989604051602001610ef89493929190613a8c565b60405160208183030381529060405280519060200120611a67565b858585611a81565b9050610f278187611ab1565b610f31818861180b565b50505050505050565b83421115610f7f57836040517f62791302000000000000000000000000000000000000000000000000000000008152600401610f769190613356565b60405180910390fd5b60007f6e71edae12b1b97f4d1f60370fef10105fa2faae0126114a169c64845d6126c9888888610fae8c611b09565b89604051602001610fc496959493929190613ad1565b6040516020818303038152906040528051906020012090506000610fe782611a67565b90506000610ff782878787611a81565b90508973ffffffffffffffffffffffffffffffffffffffff168173ffffffffffffffffffffffffffffffffffffffff161461106b57808a6040517f4b800e46000000000000000000000000000000000000000000000000000000008152600401611062929190613b32565b60405180910390fd5b6110768a8a8a6111db565b50505050505050505050565b7f9f2df0fed2c77648de5860a4cc508cd0818c85b8b8a1ab4ceeef8d981c8956a681565b6110af82610823565b6110b881611375565b6110c28383611532565b50505050565b6000600160008473ffffffffffffffffffffffffffffffffffffffff1673ffffffffffffffffffffffffffffffffffffffff16815260200190815260200160002060008373ffffffffffffffffffffffffffffffffffffffff1673ffffffffffffffffffffffffffffffffffffffff16815260200190815260200160002054905092915050565b6111576130c3565b6111618383611b60565b905092915050565b60007f01ffc9a7000000000000000000000000000000000000000000000000000000007bffffffffffffffffffffffffffffffffffffffffffffffffffffffff1916827bffffffffffffffffffffffffffffffffffffffffffffffffffffffff1916149050919050565b600033905090565b6111e88383836001611bc1565b505050565b60006111f984846110c8565b90507fffffffffffffffffffffffffffffffffffffffffffffffffffffffffffffffff811461127b578181101561126b578281836040517ffb8f41b200000000000000000000000000000000000000000000000000000000815260040161126293929190613b5b565b60405180910390fd5b61127a84848484036000611bc1565b5b50505050565b600073ffffffffffffffffffffffffffffffffffffffff168373ffffffffffffffffffffffffffffffffffffffff16036112f35760006040517f96c6fd1e0000000000000000000000000000000000000000000000000000000081526004016112ea9190613504565b60405180910390fd5b600073ffffffffffffffffffffffffffffffffffffffff168273ffffffffffffffffffffffffffffffffffffffff16036113655760006040517fec442f0500000000000000000000000000000000000000000000000000000000815260040161135c9190613504565b60405180910390fd5b611370838383611d98565b505050565b611386816113816111d3565b611da8565b50565b60006113958383610cd2565b611470576001600b600085815260200190815260200160002060000160008473ffffffffffffffffffffffffffffffffffffffff1673ffffffffffffffffffffffffffffffffffffffff16815260200190815260200160002060006101000a81548160ff02191690831515021790555061140d6111d3565b73ffffffffffffffffffffffffffffffffffffffff168273ffffffffffffffffffffffffffffffffffffffff16847f2f8788117e7eff1d82e926ec794901d17c78024a50270940304540a733656f0d60405160405180910390a460019050611475565b600090505b92915050565b60007f000000000000000000000000000000000000000000000000000000000000000073ffffffffffffffffffffffffffffffffffffffff163073ffffffffffffffffffffffffffffffffffffffff161480156114f757507f000000000000000000000000000000000000000000000000000000000000000046145b15611524577f0000000000000000000000000000000000000000000000000000000000000000905061152f565b61152c611df9565b90505b90565b600061153e8383610cd2565b1561161a576000600b600085815260200190815260200160002060000160008473ffffffffffffffffffffffffffffffffffffffff1673ffffffffffffffffffffffffffffffffffffffff16815260200190815260200160002060006101000a81548160ff0219169083151502179055506115b76111d3565b73ffffffffffffffffffffffffffffffffffffffff168273ffffffffffffffffffffffffffffffffffffffff16847ff6391f5c32d9c69d2a47ea670b442974b53935d1edc7fd64eb21e047a839171b60405160405180910390a46001905061161f565b600090505b92915050565b600065ffffffffffff8016821115611677576030826040517f6dfcc65000000000000000000000000000000000000000000000000000000000815260040161166e929190613bd7565b60405180910390fd5b819050919050565b6000808360000180549050905060008082905060058311156117075760006116a684611e8f565b846116b19190613c2f565b90506116c0876000018261202c565b60000160009054906101000a900465ffffffffffff1665ffffffffffff168665ffffffffffff1610156116f557809150611705565b6001816117029190613c63565b92505b505b600061171887600001878585612041565b90506000811461176a5761173b876000016001836117369190613c2f565b61202c565b60000160069054906101000a900479ffffffffffffffffffffffffffffffffffffffffffffffffffff1661176d565b60005b94505050505092915050565b600073ffffffffffffffffffffffffffffffffffffffff168273ffffffffffffffffffffffffffffffffffffffff16036117eb5760006040517fec442f050000000000000000000000000000000000000000000000000000000081526004016117e29190613504565b60405180910390fd5b6117f760008383611d98565b5050565b600061180643611625565b905090565b600061181683610a9e565b905081600860008573ffffffffffffffffffffffffffffffffffffffff1673ffffffffffffffffffffffffffffffffffffffff16815260200190815260200160002060006101000a81548173ffffffffffffffffffffffffffffffffffffffff021916908373ffffffffffffffffffffffffffffffffffffffff1602179055508173ffffffffffffffffffffffffffffffffffffffff168173ffffffffffffffffffffffffffffffffffffffff168473ffffffffffffffffffffffffffffffffffffffff167f3134e8a2e6d97e929a7e54011ea5485d7d196dd5f0ba4d4ef95803e8e3fc257f60405160405180910390a461191a8183611915866120ba565b6120cc565b505050565b600061197061196b600960008573ffffffffffffffffffffffffffffffffffffffff1673ffffffffffffffffffffffffffffffffffffffff168152602001908152602001600020612345565b612356565b9050919050565b6000611982826123ae565b9050919050565b60606119bf60057f00000000000000000000000000000000000000000000000000000000000000006123f790919063ffffffff16565b905090565b60606119fa60067f00000000000000000000000000000000000000000000000000000000000000006123f790919063ffffffff16565b905090565b6000808260000180549050905060008114611a5c57611a2d83600001600183611a289190613c2f565b61202c565b60000160069054906101000a900479ffffffffffffffffffffffffffffffffffffffffffffffffffff16611a5f565b60005b915050919050565b6000611a7a611a7461147b565b836124a7565b9050919050565b600080600080611a93888888886124e8565b925092509250611aa382826125dc565b829350505050949350505050565b6000611abc83611b09565b9050808214611b045782816040517f752d88c0000000000000000000000000000000000000000000000000000000008152600401611afb929190613c97565b60405180910390fd5b505050565b6000600760008373ffffffffffffffffffffffffffffffffffffffff1673ffffffffffffffffffffffffffffffffffffffff1681526020019081526020016000206000815480929190600101919050559050919050565b611b686130c3565b611bb982600960008673ffffffffffffffffffffffffffffffffffffffff1673ffffffffffffffffffffffffffffffffffffffff16815260200190815260200160002061274090919063ffffffff16565b905092915050565b600073ffffffffffffffffffffffffffffffffffffffff168473ffffffffffffffffffffffffffffffffffffffff1603611c335760006040517fe602df05000000000000000000000000000000000000000000000000000000008152600401611c2a9190613504565b60405180910390fd5b600073ffffffffffffffffffffffffffffffffffffffff168373ffffffffffffffffffffffffffffffffffffffff1603611ca55760006040517f94280d62000000000000000000000000000000000000000000000000000000008152600401611c9c9190613504565b60405180910390fd5b81600160008673ffffffffffffffffffffffffffffffffffffffff1673ffffffffffffffffffffffffffffffffffffffff16815260200190815260200160002060008573ffffffffffffffffffffffffffffffffffffffff1673ffffffffffffffffffffffffffffffffffffffff168152602001908152602001600020819055508015611d92578273ffffffffffffffffffffffffffffffffffffffff168473ffffffffffffffffffffffffffffffffffffffff167f8c5be1e5ebec7d5bd14f71427d1e84f3dd0314c0f7b2291e5b200ac8c7c3b92584604051611d899190613356565b60405180910390a35b50505050565b611da3838383612815565b505050565b611db28282610cd2565b611df55780826040517fe2517d3f000000000000000000000000000000000000000000000000000000008152600401611dec929190613cc0565b60405180910390fd5b5050565b60007f8b73c3c69bb8fe3d512ecc4cf759cc79239f7b179b0ffacaa9a75d522b39400f7f00000000000000000000000000000000000000000000000000000000000000007f00000000000000000000000000000000000000000000000000000000000000004630604051602001611e74959493929190613ce9565b60405160208183030381529060405280519060200120905090565b600060018211611ea157819050612027565b60008290506000600190507001000000000000000000000000000000008210611ed357608082901c9150604081901b90505b680100000000000000008210611ef257604082901c9150602081901b90505b6401000000008210611f0d57602082901c9150601081901b90505b620100008210611f2657601082901c9150600881901b90505b6101008210611f3e57600882901c9150600481901b90505b60108210611f5557600482901c9150600281901b90505b60048210611f6557600181901b90505b600181600302901c90506001818581611f8157611f80613d3c565b5b048201901c90506001818581611f9a57611f99613d3c565b5b048201901c90506001818581611fb357611fb2613d3c565b5b048201901c90506001818581611fcc57611fcb613d3c565b5b048201901c90506001818581611fe557611fe4613d3c565b5b048201901c90506001818581611ffe57611ffd613d3c565b5b048201901c905061202081858161201857612017613d3c565b5b0482116128c6565b8103925050505b919050565b60008260005281602060002001905092915050565b60005b818310156120af57600061205884846128d2565b90508465ffffffffffff1661206d878361202c565b60000160009054906101000a900465ffffffffffff1665ffffffffffff161115612099578092506120a9565b6001816120a69190613c63565b93505b50612044565b819050949350505050565b60006120c582610b33565b9050919050565b8173ffffffffffffffffffffffffffffffffffffffff168373ffffffffffffffffffffffffffffffffffffffff16141580156121085750600081115b1561234057600073ffffffffffffffffffffffffffffffffffffffff168373ffffffffffffffffffffffffffffffffffffffff161461222657600080612197600960008773ffffffffffffffffffffffffffffffffffffffff1673ffffffffffffffffffffffffffffffffffffffff1681526020019081526020016000206128f86121928661290e565b61297c565b79ffffffffffffffffffffffffffffffffffffffffffffffffffff16915079ffffffffffffffffffffffffffffffffffffffffffffffffffff1691508473ffffffffffffffffffffffffffffffffffffffff167fdec2bacdd2f05b59de34da9b523dff8be42e5e38e818c82fdb0bae774387a724838360405161221b929190613d6b565b60405180910390a250505b600073ffffffffffffffffffffffffffffffffffffffff168273ffffffffffffffffffffffffffffffffffffffff161461233f576000806122b0600960008673ffffffffffffffffffffffffffffffffffffffff1673ffffffffffffffffffffffffffffffffffffffff1681526020019081526020016000206129bc6122ab8661290e565b61297c565b79ffffffffffffffffffffffffffffffffffffffffffffffffffff16915079ffffffffffffffffffffffffffffffffffffffffffffffffffff1691508373ffffffffffffffffffffffffffffffffffffffff167fdec2bacdd2f05b59de34da9b523dff8be42e5e38e818c82fdb0bae774387a7248383604051612334929190613d6b565b60405180910390a250505b5b505050565b600081600001805490509050919050565b600063ffffffff80168211156123a6576020826040517f6dfcc65000000000000000000000000000000000000000000000000000000000815260040161239d929190613dcf565b60405180910390fd5b819050919050565b6000600760008373ffffffffffffffffffffffffffffffffffffffff1673ffffffffffffffffffffffffffffffffffffffff168152602001908152602001600020549050919050565b606060ff60001b83146124145761240d836129d2565b90506124a1565b81805461242090613a03565b80601f016020809104026020016040519081016040528092919081815260200182805461244c90613a03565b80156124995780601f1061246e57610100808354040283529160200191612499565b820191906000526020600020905b81548152906001019060200180831161247c57829003601f168201915b505050505090505b92915050565b60006040517f190100000000000000000000000000000000000000000000000000000000000081528360028201528260228201526042812091505092915050565b60008060007f7fffffffffffffffffffffffffffffff5d576e7357a4501ddfe92f46681b20a08460001c11156125285760006003859250925092506125d2565b60006001888888886040516000815260200160405260405161254d9493929190613df8565b6020604051602081039080840390855afa15801561256f573d6000803e3d6000fd5b505050602060405103519050600073ffffffffffffffffffffffffffffffffffffffff168173ffffffffffffffffffffffffffffffffffffffff16036125c357600060016000801b935093509350506125d2565b8060008060001b935093509350505b9450945094915050565b600060038111156125f0576125ef613e3d565b5b82600381111561260357612602613e3d565b5b031561273c576001600381111561261d5761261c613e3d565b5b8260038111156126305761262f613e3d565b5b03612667576040517ff645eedf00000000000000000000000000000000000000000000000000000000815260040160405180910390fd5b6002600381111561267b5761267a613e3d565b5b82600381111561268e5761268d613e3d565b5b036126d3578060001c6040517ffce698f70000000000000000000000000000000000000000000000000000000081526004016126ca9190613356565b60405180910390fd5b6003808111156126e6576126e5613e3d565b5b8260038111156126f9576126f8613e3d565b5b0361273b57806040517fd78bce0c0000000000000000000000000000000000000000000000000000000081526004016127329190613436565b60405180910390fd5b5b5050565b6127486130c3565b826000018263ffffffff168154811061276457612763613e6c565b5b906000526020600020016040518060400160405290816000820160009054906101000a900465ffffffffffff1665ffffffffffff1665ffffffffffff1681526020016000820160069054906101000a900479ffffffffffffffffffffffffffffffffffffffffffffffffffff1679ffffffffffffffffffffffffffffffffffffffffffffffffffff1679ffffffffffffffffffffffffffffffffffffffffffffffffffff1681525050905092915050565b612820838383612a46565b600073ffffffffffffffffffffffffffffffffffffffff168373ffffffffffffffffffffffffffffffffffffffff16036128b657600061285e6107ea565b9050600061286a612c6b565b9050808211156128b35781816040517f1cb15d260000000000000000000000000000000000000000000000000000000081526004016128aa929190613d6b565b60405180910390fd5b50505b6128c1838383612c8f565b505050565b60008115159050919050565b600060028284186128e39190613e9b565b8284166128f09190613c63565b905092915050565b600081836129069190613ecc565b905092915050565b600079ffffffffffffffffffffffffffffffffffffffffffffffffffff80168211156129745760d0826040517f6dfcc65000000000000000000000000000000000000000000000000000000000815260040161296b929190613f55565b60405180910390fd5b819050919050565b6000806129b061298a610d3d565b6129a0612996886119ff565b868863ffffffff16565b87612d499092919063ffffffff16565b91509150935093915050565b600081836129ca9190613f7e565b905092915050565b606060006129df83612d66565b90506000602067ffffffffffffffff8111156129fe576129fd613a5d565b5b6040519080825280601f01601f191660200182016040528015612a305781602001600182028036833780820191505090505b5090508181528360208201528092505050919050565b600073ffffffffffffffffffffffffffffffffffffffff168373ffffffffffffffffffffffffffffffffffffffff1603612a98578060026000828254612a8c9190613c63565b92505081905550612b6b565b60008060008573ffffffffffffffffffffffffffffffffffffffff1673ffffffffffffffffffffffffffffffffffffffff16815260200190815260200160002054905081811015612b24578381836040517fe450d38c000000000000000000000000000000000000000000000000000000008152600401612b1b93929190613b5b565b60405180910390fd5b8181036000808673ffffffffffffffffffffffffffffffffffffffff1673ffffffffffffffffffffffffffffffffffffffff16815260200190815260200160002081905550505b600073ffffffffffffffffffffffffffffffffffffffff168273ffffffffffffffffffffffffffffffffffffffff1603612bb45780600260008282540392505081905550612c01565b806000808473ffffffffffffffffffffffffffffffffffffffff1673ffffffffffffffffffffffffffffffffffffffff168152602001908152602001600020600082825401925050819055505b8173ffffffffffffffffffffffffffffffffffffffff168373ffffffffffffffffffffffffffffffffffffffff167fddf252ad1be2c89b69c2b068fc378daa952ba7f163c4a11628f55a4df523b3ef83604051612c5e9190613356565b60405180910390a3505050565b600079ffffffffffffffffffffffffffffffffffffffffffffffffffff8016905090565b600073ffffffffffffffffffffffffffffffffffffffff168373ffffffffffffffffffffffffffffffffffffffff1603612cdc57612cd9600a6129bc612cd48461290e565b61297c565b50505b600073ffffffffffffffffffffffffffffffffffffffff168273ffffffffffffffffffffffffffffffffffffffff1603612d2957612d26600a6128f8612d218461290e565b61297c565b50505b612d44612d3584610a9e565b612d3e84610a9e565b836120cc565b505050565b600080612d5a856000018585612db6565b91509150935093915050565b60008060ff8360001c169050601f811115612dad576040517fb3512b0c00000000000000000000000000000000000000000000000000000000815260040160405180910390fd5b80915050919050565b6000806000858054905090506000811115612fd3576000612de387600184612dde9190613c2f565b61202c565b905060008160000160009054906101000a900465ffffffffffff16905060008260000160069054906101000a900479ffffffffffffffffffffffffffffffffffffffffffffffffffff1690508765ffffffffffff168265ffffffffffff161115612e79576040517f2520601d00000000000000000000000000000000000000000000000000000000815260040160405180910390fd5b8765ffffffffffff168265ffffffffffff1603612ee457868360000160066101000a81548179ffffffffffffffffffffffffffffffffffffffffffffffffffff021916908379ffffffffffffffffffffffffffffffffffffffffffffffffffff160217905550612fc4565b8860405180604001604052808a65ffffffffffff1681526020018979ffffffffffffffffffffffffffffffffffffffffffffffffffff168152509080600181540180825580915050600190039060005260206000200160009091909190915060008201518160000160006101000a81548165ffffffffffff021916908365ffffffffffff16021790555060208201518160000160066101000a81548179ffffffffffffffffffffffffffffffffffffffffffffffffffff021916908379ffffffffffffffffffffffffffffffffffffffffffffffffffff16021790555050505b808795509550505050506130bb565b8560405180604001604052808765ffffffffffff1681526020018679ffffffffffffffffffffffffffffffffffffffffffffffffffff168152509080600181540180825580915050600190039060005260206000200160009091909190915060008201518160000160006101000a81548165ffffffffffff021916908365ffffffffffff16021790555060208201518160000160066101000a81548179ffffffffffffffffffffffffffffffffffffffffffffffffffff021916908379ffffffffffffffffffffffffffffffffffffffffffffffffffff160217905550505060008492509250505b935093915050565b6040518060400160405280600065ffffffffffff168152602001600079ffffffffffffffffffffffffffffffffffffffffffffffffffff1681525090565b600080fd5b60007fffffffff0000000000000000000000000000000000000000000000000000000082169050919050565b61313b81613106565b811461314657600080fd5b50565b60008135905061315881613132565b92915050565b60006020828403121561317457613173613101565b5b600061318284828501613149565b91505092915050565b60008115159050919050565b6131a08161318b565b82525050565b60006020820190506131bb6000830184613197565b92915050565b600081519050919050565b600082825260208201905092915050565b60005b838110156131fb5780820151818401526020810190506131e0565b60008484015250505050565b6000601f19601f8301169050919050565b6000613223826131c1565b61322d81856131cc565b935061323d8185602086016131dd565b61324681613207565b840191505092915050565b6000602082019050818103600083015261326b8184613218565b905092915050565b600073ffffffffffffffffffffffffffffffffffffffff82169050919050565b600061329e82613273565b9050919050565b6132ae81613293565b81146132b957600080fd5b50565b6000813590506132cb816132a5565b92915050565b6000819050919050565b6132e4816132d1565b81146132ef57600080fd5b50565b600081359050613301816132db565b92915050565b6000806040838503121561331e5761331d613101565b5b600061332c858286016132bc565b925050602061333d858286016132f2565b9150509250929050565b613350816132d1565b82525050565b600060208201905061336b6000830184613347565b92915050565b60008060006060848603121561338a57613389613101565b5b6000613398868287016132bc565b93505060206133a9868287016132bc565b92505060406133ba868287016132f2565b9150509250925092565b6000819050919050565b6133d7816133c4565b81146133e257600080fd5b50565b6000813590506133f4816133ce565b92915050565b6000602082840312156134105761340f613101565b5b600061341e848285016133e5565b91505092915050565b613430816133c4565b82525050565b600060208201905061344b6000830184613427565b92915050565b6000806040838503121561346857613467613101565b5b6000613476858286016133e5565b9250506020613487858286016132bc565b9150509250929050565b600060ff82169050919050565b6134a781613491565b82525050565b60006020820190506134c2600083018461349e565b92915050565b6000602082840312156134de576134dd613101565b5b60006134ec848285016132bc565b91505092915050565b6134fe81613293565b82525050565b600060208201905061351960008301846134f5565b92915050565b600063ffffffff82169050919050565b6135388161351f565b82525050565b6000602082019050613553600083018461352f565b92915050565b60007fff0000000000000000000000000000000000000000000000000000000000000082169050919050565b61358e81613559565b82525050565b600081519050919050565b600082825260208201905092915050565b6000819050602082019050919050565b6135c9816132d1565b82525050565b60006135db83836135c0565b60208301905092915050565b6000602082019050919050565b60006135ff82613594565b613609818561359f565b9350613614836135b0565b8060005b8381101561364557815161362c88826135cf565b9750613637836135e7565b925050600181019050613618565b5085935050505092915050565b600060e082019050613667600083018a613585565b81810360208301526136798189613218565b9050818103604083015261368d8188613218565b905061369c6060830187613347565b6136a960808301866134f5565b6136b660a0830185613427565b81810360c08301526136c881846135f4565b905098975050505050505050565b6000602082840312156136ec576136eb613101565b5b60006136fa848285016132f2565b91505092915050565b600065ffffffffffff82169050919050565b61371e81613703565b82525050565b60006020820190506137396000830184613715565b92915050565b61374881613491565b811461375357600080fd5b50565b6000813590506137658161373f565b92915050565b60008060008060008060c0878903121561378857613787613101565b5b600061379689828a016132bc565b96505060206137a789828a016132f2565b95505060406137b889828a016132f2565b94505060606137c989828a01613756565b93505060806137da89828a016133e5565b92505060a06137eb89828a016133e5565b9150509295509295509295565b600080600080600080600060e0888a03121561381757613816613101565b5b60006138258a828b016132bc565b97505060206138368a828b016132bc565b96505060406138478a828b016132f2565b95505060606138588a828b016132f2565b94505060806138698a828b01613756565b93505060a061387a8a828b016133e5565b92505060c061388b8a828b016133e5565b91505092959891949750929550565b600080604083850312156138b1576138b0613101565b5b60006138bf858286016132bc565b92505060206138d0858286016132bc565b9150509250929050565b6138e38161351f565b81146138ee57600080fd5b50565b600081359050613900816138da565b92915050565b6000806040838503121561391d5761391c613101565b5b600061392b858286016132bc565b925050602061393c858286016138f1565b9150509250929050565b61394f81613703565b82525050565b600079ffffffffffffffffffffffffffffffffffffffffffffffffffff82169050919050565b61398481613955565b82525050565b6040820160008201516139a06000850182613946565b5060208201516139b3602085018261397b565b50505050565b60006040820190506139ce600083018461398a565b92915050565b7f4e487b7100000000000000000000000000000000000000000000000000000000600052602260045260246000fd5b60006002820490506001821680613a1b57607f821691505b602082108103613a2e57613a2d6139d4565b5b50919050565b6000604082019050613a496000830185613347565b613a566020830184613715565b9392505050565b7f4e487b7100000000000000000000000000000000000000000000000000000000600052604160045260246000fd5b6000608082019050613aa16000830187613427565b613aae60208301866134f5565b613abb6040830185613347565b613ac86060830184613347565b95945050505050565b600060c082019050613ae66000830189613427565b613af360208301886134f5565b613b0060408301876134f5565b613b0d6060830186613347565b613b1a6080830185613347565b613b2760a0830184613347565b979650505050505050565b6000604082019050613b4760008301856134f5565b613b5460208301846134f5565b9392505050565b6000606082019050613b7060008301866134f5565b613b7d6020830185613347565b613b8a6040830184613347565b949350505050565b6000819050919050565b6000819050919050565b6000613bc1613bbc613bb784613b92565b613b9c565b613491565b9050919050565b613bd181613ba6565b82525050565b6000604082019050613bec6000830185613bc8565b613bf96020830184613347565b9392505050565b7f4e487b7100000000000000000000000000000000000000000000000000000000600052601160045260246000fd5b6000613c3a826132d1565b9150613c45836132d1565b9250828203905081811115613c5d57613c5c613c00565b5b92915050565b6000613c6e826132d1565b9150613c79836132d1565b9250828201905080821115613c9157613c90613c00565b5b92915050565b6000604082019050613cac60008301856134f5565b613cb96020830184613347565b9392505050565b6000604082019050613cd560008301856134f5565b613ce26020830184613427565b9392505050565b600060a082019050613cfe6000830188613427565b613d0b6020830187613427565b613d186040830186613427565b613d256060830185613347565b613d3260808301846134f5565b9695505050505050565b7f4e487b7100000000000000000000000000000000000000000000000000000000600052601260045260246000fd5b6000604082019050613d806000830185613347565b613d8d6020830184613347565b9392505050565b6000819050919050565b6000613db9613db4613daf84613d94565b613b9c565b613491565b9050919050565b613dc981613d9e565b82525050565b6000604082019050613de46000830185613dc0565b613df16020830184613347565b9392505050565b6000608082019050613e0d6000830187613427565b613e1a602083018661349e565b613e276040830185613427565b613e346060830184613427565b95945050505050565b7f4e487b7100000000000000000000000000000000000000000000000000000000600052602160045260246000fd5b7f4e487b7100000000000000000000000000000000000000000000000000000000600052603260045260246000fd5b6000613ea6826132d1565b9150613eb1836132d1565b925082613ec157613ec0613d3c565b5b828204905092915050565b6000613ed782613955565b9150613ee283613955565b9250828203905079ffffffffffffffffffffffffffffffffffffffffffffffffffff811115613f1457613f13613c00565b5b92915050565b6000819050919050565b6000613f3f613f3a613f3584613f1a565b613b9c565b613491565b9050919050565b613f4f81613f24565b82525050565b6000604082019050613f6a6000830185613f46565b613f776020830184613347565b9392505050565b6000613f8982613955565b9150613f9483613955565b9250828201905079ffffffffffffffffffffffffffffffffffffffffffffffffffff811115613fc657613fc5613c00565b5b9291505056fea26469706673582212209858656efffccf0e03a95460811e2297c7ae55d42f0647adbd3dd695b0c7505864736f6c63430008180033",
  "linkReferences": {},
  "deployedLinkReferences": {}
}