{
  "_format": "hh-sol-artifact-1",
  "contractName": "TokenizedBallot",
  "sourceName": "contracts/TokenizedBallot.sol",
  "abi": [
    {
      "inputs": [
        {
          "internalType": "bytes32[]",
          "name": "_proposalNames",
          "type": "bytes32[]"
        },
        {
          "internalType": "address",
          "name": "_tokenContract",
          "type": "address"
        },
        {
          "internalType": "uint256",
          "name": "_targetBlockNumber",
          "type": "uint256"
        }
      ],
      "stateMutability": "nonpayable",
      "type": "constructor"
    },
    {
      "inputs": [],
      "name": "getProposalsCount",
      "outputs": [
        {
          "internalType": "uint256",
          "name": "",
          "type": "uint256"
        }
      ],
      "stateMutability": "view",
      "type": "function"
    },
    {
      "inputs": [
        {
          "internalType": "address",
          "name": "voter",
          "type": "address"
        }
      ],
      "name": "getVotingPower",
      "outputs": [
        {
          "internalType": "uint256",
          "name": "",
          "type": "uint256"
        }
      ],
      "stateMutability": "view",
      "type": "function"
    },
    {
      "inputs": [
        {
          "internalType": "uint256",
          "name": "",
          "type": "uint256"
        }
      ],
      "name": "proposals",
      "outputs": [
        {
          "internalType": "bytes32",
          "name": "name",
          "type": "bytes32"
        },
        {
          "internalType": "uint256",
          "name": "voteCount",
          "type": "uint256"
        }
      ],
      "stateMutability": "view",
      "type": "function"
    },
    {
      "inputs": [],
      "name": "targetBlockNumber",
      "outputs": [
        {
          "internalType": "uint256",
          "name": "",
          "type": "uint256"
        }
      ],
      "stateMutability": "view",
      "type": "function"
    },
    {
      "inputs": [],
      "name": "tokenContract",
      "outputs": [
        {
          "internalType": "contract IMyToken",
          "name": "",
          "type": "address"
        }
      ],
      "stateMutability": "view",
      "type": "function"
    },
    {
      "inputs": [
        {
          "internalType": "uint256",
          "name": "proposal",
          "type": "uint256"
        },
        {
          "internalType": "uint256",
          "name": "amount",
          "type": "uint256"
        }
      ],
      "name": "vote",
      "outputs": [],
      "stateMutability": "nonpayable",
      "type": "function"
    },
    {
      "inputs": [
        {
          "internalType": "address",
          "name": "",
          "type": "address"
        }
      ],
      "name": "votePowerSpent",
      "outputs": [
        {
          "internalType": "uint256",
          "name": "",
          "type": "uint256"
        }
      ],
      "stateMutability": "view",
      "type": "function"
    },
    {
      "inputs": [],
      "name": "winnerName",
      "outputs": [
        {
          "internalType": "bytes32",
          "name": "winnerName_",
          "type": "bytes32"
        }
      ],
      "stateMutability": "view",
      "type": "function"
    },
    {
      "inputs": [],
      "name": "winningProposal",
      "outputs": [
        {
          "internalType": "uint256",
          "name": "winningProposal_",
          "type": "uint256"
        },
        {
          "internalType": "bool",
          "name": "hasTie",
          "type": "bool"
        }
      ],
      "stateMutability": "view",
      "type": "function"
    }
  ],
  "bytecode": "0x60806040523480156200001157600080fd5b506040516200130138038062001301833981810160405281019062000037919062000652565b816000806101000a81548173ffffffffffffffffffffffffffffffffffffffff021916908373ffffffffffffffffffffffffffffffffffffffff1602179055504381106200008b43620001a360201b60201c565b6200009c83620001a360201b60201c565b604051602001620000af929190620007e2565b6040516020818303038152906040529062000102576040517f08c379a0000000000000000000000000000000000000000000000000000000008152600401620000f991906200087a565b60405180910390fd5b508060028190555060005b83518110156200019957600160405180604001604052808684815181106200013a57620001396200089e565b5b60200260200101518152602001600081525090806001815401808255809150506001900390600052602060002090600202016000909190919091506000820151816000015560208201518160010155505080806001019150506200010d565b50505050620008fc565b606060006001620001ba846200028260201b60201c565b01905060008167ffffffffffffffff811115620001dc57620001db62000418565b5b6040519080825280601f01601f1916602001820160405280156200020f5781602001600182028036833780820191505090505b509050600082602001820190505b60011562000277578080600190039150507f3031323334353637383961626364656600000000000000000000000000000000600a86061a8153600a85816200026a5762000269620008cd565b5b049450600085036200021d575b819350505050919050565b600080600090507a184f03e93ff9f4daa797ed6e38ed64bf6a1f0100000000000000008310620002e4577a184f03e93ff9f4daa797ed6e38ed64bf6a1f0100000000000000008381620002da57620002d9620008cd565b5b0492506040810190505b6d04ee2d6d415b85acef8100000000831062000325576d04ee2d6d415b85acef810000000083816200031b576200031a620008cd565b5b0492506020810190505b662386f26fc1000083106200035857662386f26fc1000083816200034e576200034d620008cd565b5b0492506010810190505b6305f5e100831062000385576305f5e10083816200037b576200037a620008cd565b5b0492506008810190505b6127108310620003ae576127108381620003a457620003a3620008cd565b5b0492506004810190505b60648310620003d55760648381620003cb57620003ca620008cd565b5b0492506002810190505b600a8310620003e5576001810190505b80915050919050565b6000604051905090565b600080fd5b600080fd5b600080fd5b6000601f19601f8301169050919050565b7f4e487b7100000000000000000000000000000000000000000000000000000000600052604160045260246000fd5b620004528262000407565b810181811067ffffffffffffffff8211171562000474576200047362000418565b5b80604052505050565b600062000489620003ee565b905062000497828262000447565b919050565b600067ffffffffffffffff821115620004ba57620004b962000418565b5b602082029050602081019050919050565b600080fd5b6000819050919050565b620004e581620004d0565b8114620004f157600080fd5b50565b6000815190506200050581620004da565b92915050565b6000620005226200051c846200049c565b6200047d565b90508083825260208201905060208402830185811115620005485762000547620004cb565b5b835b81811015620005755780620005608882620004f4565b8452602084019350506020810190506200054a565b5050509392505050565b600082601f83011262000597576200059662000402565b5b8151620005a98482602086016200050b565b91505092915050565b600073ffffffffffffffffffffffffffffffffffffffff82169050919050565b6000620005df82620005b2565b9050919050565b620005f181620005d2565b8114620005fd57600080fd5b50565b6000815190506200061181620005e6565b92915050565b6000819050919050565b6200062c8162000617565b81146200063857600080fd5b50565b6000815190506200064c8162000621565b92915050565b6000806000606084860312156200066e576200066d620003f8565b5b600084015167ffffffffffffffff8111156200068f576200068e620003fd565b5b6200069d868287016200057f565b9350506020620006b08682870162000600565b9250506040620006c3868287016200063b565b9150509250925092565b600081905092915050565b7f54617267657420626c6f636b206d75737420626520696e20746865207061737460008201527f2c2063757272656e7420626c6f636b206e756d6265722069733a200000000000602082015250565b600062000736603b83620006cd565b91506200074382620006d8565b603b82019050919050565b600081519050919050565b60005b83811015620007795780820151818401526020810190506200075c565b60008484015250505050565b600062000792826200074e565b6200079e8185620006cd565b9350620007b081856020860162000759565b80840191505092915050565b7f20616e642074617267657420626c6f636b206e756d6265722069733a20000000815250565b6000620007ef8262000727565b9150620007fd828562000785565b91506200080a82620007bc565b601d820191506200081c828462000785565b91508190509392505050565b600082825260208201905092915050565b600062000846826200074e565b62000852818562000828565b93506200086481856020860162000759565b6200086f8162000407565b840191505092915050565b6000602082019050818103600083015262000896818462000839565b905092915050565b7f4e487b7100000000000000000000000000000000000000000000000000000000600052603260045260246000fd5b7f4e487b7100000000000000000000000000000000000000000000000000000000600052601260045260246000fd5b6109f5806200090c6000396000f3fe608060405234801561001057600080fd5b50600436106100935760003560e01c806398e527d31161006657806398e527d3146101245780639e90d0d914610142578063b384abef14610172578063bb4d44361461018e578063e2ba53f0146101be57610093565b8063013cf08b146100985780632a8cd29e146100c957806355a373d6146100e7578063609ff1bd14610105575b600080fd5b6100b260048036038101906100ad919061059f565b6101dc565b6040516100c09291906105f4565b60405180910390f35b6100d1610210565b6040516100de919061061d565b60405180910390f35b6100ef610216565b6040516100fc91906106b7565b60405180910390f35b61010d61023a565b60405161011b9291906106ed565b60405180910390f35b61012c6102f8565b604051610139919061061d565b60405180910390f35b61015c60048036038101906101579190610754565b610305565b604051610169919061061d565b60405180910390f35b61018c60048036038101906101879190610781565b61031d565b005b6101a860048036038101906101a39190610754565b610404565b6040516101b5919061061d565b60405180910390f35b6101c66104f5565b6040516101d391906107c1565b60405180910390f35b600181815481106101ec57600080fd5b90600052602060002090600202016000915090508060000154908060010154905082565b60025481565b60008054906101000a900473ffffffffffffffffffffffffffffffffffffffff1681565b600080600080915060005b6001805490508110156102f2578160018281548110610267576102666107dc565b5b90600052602060002090600202016001015411156102b35760018181548110610293576102926107dc565b5b9060005260206000209060020201600101549150809350600092506102e5565b81600182815481106102c8576102c76107dc565b5b906000526020600020906002020160010154036102e457600192505b5b8080600101915050610245565b50509091565b6000600180549050905090565b60036020528060005260406000206000915090505481565b600061032833610404565b90508181101561036d576040517f08c379a00000000000000000000000000000000000000000000000000000000081526004016103649061088e565b60405180910390fd5b81600360003373ffffffffffffffffffffffffffffffffffffffff1673ffffffffffffffffffffffffffffffffffffffff16815260200190815260200160002060008282546103bc91906108dd565b9250508190555081600184815481106103d8576103d76107dc565b5b906000526020600020906002020160010160008282546103f891906108dd565b92505081905550505050565b6000600360008373ffffffffffffffffffffffffffffffffffffffff1673ffffffffffffffffffffffffffffffffffffffff1681526020019081526020016000205460008054906101000a900473ffffffffffffffffffffffffffffffffffffffff1673ffffffffffffffffffffffffffffffffffffffff16633a46b1a8846002546040518363ffffffff1660e01b81526004016104a3929190610920565b602060405180830381865afa1580156104c0573d6000803e3d6000fd5b505050506040513d601f19601f820116820180604052508101906104e4919061095e565b6104ee919061098b565b9050919050565b600080600061050261023a565b915091508015610536577f4e6f2057696e6e6572202d20544945000000000000000000000000000000000092505050610561565b6001828154811061054a576105496107dc565b5b906000526020600020906002020160000154925050505b90565b600080fd5b6000819050919050565b61057c81610569565b811461058757600080fd5b50565b60008135905061059981610573565b92915050565b6000602082840312156105b5576105b4610564565b5b60006105c38482850161058a565b91505092915050565b6000819050919050565b6105df816105cc565b82525050565b6105ee81610569565b82525050565b600060408201905061060960008301856105d6565b61061660208301846105e5565b9392505050565b600060208201905061063260008301846105e5565b92915050565b600073ffffffffffffffffffffffffffffffffffffffff82169050919050565b6000819050919050565b600061067d61067861067384610638565b610658565b610638565b9050919050565b600061068f82610662565b9050919050565b60006106a182610684565b9050919050565b6106b181610696565b82525050565b60006020820190506106cc60008301846106a8565b92915050565b60008115159050919050565b6106e7816106d2565b82525050565b600060408201905061070260008301856105e5565b61070f60208301846106de565b9392505050565b600061072182610638565b9050919050565b61073181610716565b811461073c57600080fd5b50565b60008135905061074e81610728565b92915050565b60006020828403121561076a57610769610564565b5b60006107788482850161073f565b91505092915050565b6000806040838503121561079857610797610564565b5b60006107a68582860161058a565b92505060206107b78582860161058a565b9150509250929050565b60006020820190506107d660008301846105d6565b92915050565b7f4e487b7100000000000000000000000000000000000000000000000000000000600052603260045260246000fd5b600082825260208201905092915050565b7f4572726f723a20747279696e6720746f20766f74652077697468206d6f72652060008201527f766f746573207468616e20617661696c61626c65000000000000000000000000602082015250565b600061087860348361080b565b91506108838261081c565b604082019050919050565b600060208201905081810360008301526108a78161086b565b9050919050565b7f4e487b7100000000000000000000000000000000000000000000000000000000600052601160045260246000fd5b60006108e882610569565b91506108f383610569565b925082820190508082111561090b5761090a6108ae565b5b92915050565b61091a81610716565b82525050565b60006040820190506109356000830185610911565b61094260208301846105e5565b9392505050565b60008151905061095881610573565b92915050565b60006020828403121561097457610973610564565b5b600061098284828501610949565b91505092915050565b600061099682610569565b91506109a183610569565b92508282039050818111156109b9576109b86108ae565b5b9291505056fea264697066735822122071bb268541cb38798c878322c5e43738b334de5da940bd1c5ec5db635b52cd9564736f6c63430008180033",
  "linkReferences": {},
  "deployedLinkReferences": {}
}